{
  "contractName": "storeState",
  "abi": [
    {
      "inputs": [],
      "payable": false,
      "stateMutability": "nonpayable",
      "type": "constructor"
    },
    {
      "anonymous": false,
      "inputs": [
        {
          "indexed": false,
          "internalType": "address",
          "name": "author",
          "type": "address"
        },
        {
          "indexed": false,
          "internalType": "uint256",
          "name": "expiry",
          "type": "uint256"
        },
        {
          "indexed": false,
          "internalType": "enum storeState.ConStates",
          "name": "state",
          "type": "uint8"
        }
      ],
      "name": "contractCreated",
      "type": "event"
    },
    {
      "constant": true,
      "inputs": [],
      "name": "contractExpiry",
      "outputs": [
        {
          "internalType": "uint256",
          "name": "",
          "type": "uint256"
        }
      ],
      "payable": false,
      "stateMutability": "view",
      "type": "function"
    },
    {
      "constant": true,
      "inputs": [],
      "name": "owner",
      "outputs": [
        {
          "internalType": "address",
          "name": "",
          "type": "address"
        }
      ],
      "payable": false,
      "stateMutability": "view",
      "type": "function"
    },
    {
      "constant": false,
      "inputs": [],
      "name": "setDefault",
      "outputs": [],
      "payable": false,
      "stateMutability": "nonpayable",
      "type": "function"
    },
    {
      "constant": false,
      "inputs": [],
      "name": "checkTimeout",
      "outputs": [],
      "payable": false,
      "stateMutability": "nonpayable",
      "type": "function"
    },
    {
      "constant": false,
      "inputs": [
        {
          "internalType": "string",
          "name": "userMsg",
          "type": "string"
        }
      ],
      "name": "setState",
      "outputs": [],
      "payable": false,
      "stateMutability": "nonpayable",
      "type": "function"
    },
    {
      "constant": true,
      "inputs": [],
      "name": "getState",
      "outputs": [
        {
          "internalType": "enum storeState.ConStates",
          "name": "",
          "type": "uint8"
        }
      ],
      "payable": false,
      "stateMutability": "view",
      "type": "function"
    }
  ],
  "bytecode": "0x608060405234801561001057600080fd5b50336000806101000a81548173ffffffffffffffffffffffffffffffffffffffff021916908373ffffffffffffffffffffffffffffffffffffffff16021790555061005f61011760201b60201c565b7fba97aa49dfc3f952ddc72bb73db75ad6702757f795a2df92dc182e49483c07d76000809054906101000a900473ffffffffffffffffffffffffffffffffffffffff16600154600260009054906101000a900460ff16604051808473ffffffffffffffffffffffffffffffffffffffff1673ffffffffffffffffffffffffffffffffffffffff1681526020018381526020018260028111156100fd57fe5b60ff168152602001935050505060405180910390a1610147565b6000600260006101000a81548160ff0219169083600281111561013657fe5b0217905550603c4201600181905550565b6103e7806101566000396000f3fe608060405234801561001057600080fd5b50600436106100625760003560e01c806309bbd6a0146100675780631865c57d1461007157806318ef333e1461009d57806368794b87146100a757806389aba642146101625780638da5cb5b14610180575b600080fd5b61006f6101ca565b005b6100796101f9565b6040518082600281111561008957fe5b60ff16815260200191505060405180910390f35b6100a5610210565b005b610160600480360360208110156100bd57600080fd5b81019080803590602001906401000000008111156100da57600080fd5b8201836020820111156100ec57600080fd5b8035906020019184600183028401116401000000008311171561010e57600080fd5b91908080601f016020809104026020016040519081016040528093929190818152602001838380828437600081840152601f19601f820116905080830192505050505050509192919290505050610240565b005b61016a610387565b6040518082815260200191505060405180910390f35b61018861038d565b604051808273ffffffffffffffffffffffffffffffffffffffff1673ffffffffffffffffffffffffffffffffffffffff16815260200191505060405180910390f35b60015442106101f75760028060006101000a81548160ff021916908360028111156101f157fe5b02179055505b565b6000600260009054906101000a900460ff16905090565b6000600260006101000a81548160ff0219169083600281111561022f57fe5b0217905550603c4201600181905550565b6000809054906101000a900473ffffffffffffffffffffffffffffffffffffffff1673ffffffffffffffffffffffffffffffffffffffff163373ffffffffffffffffffffffffffffffffffffffff1614156103845760405160200180807f49276d20616c6976650000000000000000000000000000000000000000000000815250600901905060405160208183030381529060405280519060200120816040516020018082805190602001908083835b6020831061031357805182526020820191506020810190506020830392506102f0565b6001836020036101000a038019825116818451168082178552505050505050905001915050604051602081830303815290604052805190602001201415610383576001600260006101000a81548160ff0219169083600281111561037357fe5b0217905550603c42016001819055505b5b50565b60015481565b6000809054906101000a900473ffffffffffffffffffffffffffffffffffffffff168156fea265627a7a723158209f3b51f4645045e6dfbac93b2b4cf2547eb32dd2dad423d01d42aa07fe402bbb64736f6c634300050c0032",
  "source": "//import solidity\r\npragma solidity ^0.5.11;\r\n\r\n//First contract\r\ncontract storeState {\r\n  address public owner;\r\n  uint public contractExpiry;\r\n\r\n  //mapping(address => string) public States;\r\n  //mapping(address => uint) public contractExpiryTimes;\r\n\r\n  //Enum type\r\n  enum ConStates { Unknown, Alive, Missing}\r\n  ConStates state;\r\n\r\n  //event\r\n  event contractCreated( address author, uint expiry, ConStates state );\r\n\r\n  //constructor to initialise state variables\r\n  constructor() public{\r\n    owner = msg.sender;\r\n    setDefault();\r\n    emit contractCreated(owner,contractExpiry,state);\r\n  }\r\n//Defining owner restrictions\r\n  modifier restricted() {\r\n    if (msg.sender == owner) _;\r\n  }\r\n\r\n//Function to set default state and contract expiry time.\r\nfunction setDefault() public {\r\n        state = ConStates.Unknown;\r\n        contractExpiry = block.timestamp + 60 seconds;\r\n    }\r\n\r\n//Function to update 'missing' state if the time is beyond expiry time\r\nfunction checkTimeout() public{\r\n  if(now >= contractExpiry)\r\n  {\r\n    state = ConStates.Missing;\r\n  }\r\n}\r\n\r\nfunction setState(string memory userMsg) public restricted{\r\n  //compares the user message(basically for string comparison)\r\n  if(keccak256(abi.encodePacked((userMsg))) == keccak256(abi.encodePacked((\"I'm alive\"))) )\r\n  {\r\n    state = ConStates.Alive;\r\n    contractExpiry = now + 60 seconds;\r\n  }\r\n}\r\nfunction getState() public view returns (ConStates)  {\r\n    return state;\r\n  }\r\n}\r\n",
  "sourcePath": "C:/Users/abhig/Documents/SIT764/CodeQuiz/contracts/storeState.sol",
  "compiler": {
    "name": "solc",
    "version": "0.5.12+commit.7709ece9.Emscripten.clang"
  },
  "schemaVersion": "3.0.19",
  "updatedAt": "2019-12-08T08:26:02.692Z",
  "devdoc": {
    "methods": {}
  },
  "userdoc": {
    "methods": {}
  }
}